:100000000C9434000C9495010C9496010C949E0170
:100010000C949F010C94A0010C94A1010C94A201DA
:100020000C94A3010C94A4010C94A5010C94A601BA
:100030000C94A7010C9497010C94A8010C94A901AD
:100040000C94AA010C94AB010C9492050C94AC0195
:100050000C94AD010C94AE010C94AF010C94B00162
:100060000C94B3040C94B10111241FBECFEFD8E05F
:10007000DEBFCDBF11E0A0E0B1E0E6E0F1E102C0FB
:1000800005900D92A031B107D9F713E0A0E1B1E0DE
:1000900001C01D92A438B107E1F70E945B050C94E2
:1000A00081080C941B01DF93CF9300D000D0CDB713
:1000B000DEB79C011A8219821C821B821A82198265
:1000C00013C01C821B8206C000008B819C8101969C
:1000D0009C838B838B819C81885E9340A8F389816C
:1000E0009A8101969A83898389819A8182179307DD
:1000F00040F30F900F900F900F90CF91DF910895E4
:1001000020911001E22FF0E0EE0FFF1FE455FE4FAB
:10011000918380832F5F27702093100190E080915E
:100120001101281391E0892F0895962F0E948000D5
:1001300008950F931F93DF93CF9300D0CDB7DEB711
:100140008E010F5F1F4F1BC0E22FF0E0EE0FFF1F6D
:10015000E455FE4F818190812F5F2770209311011C
:100160008A83998380E6B80142E00E94740484E6A1
:1001700090E00E9453000E94AD048130E1F3209191
:100180001101809110018217F9F60F900F90CF9115
:10019000DF911F910F91089584E160E20E94950024
:1001A00089E360E40E94950082E168E20E94950084
:1001B00088E265E00E94950083E161E00E9495007D
:1001C0000E94990008950895579A579A52985F98F7
:1001D00084B1807F84B984B1806F84B987B1807F16
:1001E00087B9E1E8F0E08081887F8083E9E6F0E08C
:1001F00080818C608083808183608083E89A86E040
:1002000085BD81E083BFE0E0F4E080E3DF011D9283
:100210008A95E9F7CF0161E070E040E350E00E9489
:100220005B08089588950DB301601DBA88950DB3DC
:1002300001701DBA089518955E9A5E98889543C01E
:100240003091610037603093610000E010E520E0FC
:10025000B92FA82FF72FE62FD72F30914F003460FA
:1002600030934F0030E54FEF4093650030936400CA
:10027000C62F3DB330683DBB5E9A88955E983DB30E
:100280003F773DBB00000000E3B1C6B1CF703081C5
:10029000E3B1488950A1342335237EF03217A1F30E
:1002A0005E9A00005E98412F00916400102F041B9D
:1002B0002D930D93232F0000E7CF0FEF011B039524
:1002C0003D930C9300C030916100387F3093610002
:1002D0005E9A5E98E89408955E9A5E9888959EF37B
:1002E000B92FA82FD72FC62F30E54FEF40936500C9
:1002F00030936400309161003760309361000000FA
:1003000030914F00346030934F003DB330683DBBB7
:100310005E9A88955E983DB33F773DBB000036B14D
:1003200043B13D934993DEF7CECF189518953091A0
:10033000140131603093140168941895189518953C
:100340001895189518951895189518951895189545
:100350001895189518951895189518951895189535
:1003600018951895CF93DF93569AC0E0D0E05E9A27
:1003700084E690E00E9453005E9884E690E00E943C
:1003800053005E9A84E690E00E9453005E9884EFEA
:1003900091E00E9453002196C530D10541F75E9A45
:1003A000DF91CF910895F89490911201ECE1F3E080
:1003B000E90FF11D80839F5F9770909312017894ED
:1003C0000895809114018823B1F080FF09C0F8944A
:1003D0008E7F8093140178940E94A3020E940406E9
:1003E0008091140181FF07C0F8948D7F80931401E0
:1003F00078940E94E503909113018091120189176E
:1004000001F3F894E92FF0E0E45EFC4FE0819F5F98
:100410009770909313017894E03119F1E13168F409
:10042000E230C9F0E33018F4E13059F625C0E43089
:1004300009F1E83009F0C5CF1BC0E03871F0E138B0
:1004400020F4E03209F0BDCF11C0E13841F0E039CD
:1004500009F0B7CF18C082E013C080E811C081E86E
:100460000FC080E10E94350480E10EC080E208C028
:1004700088E006C084E004C081E00E94250881E095
:100480000E9435049ECF80E90E9425089ACFEF9202
:10049000FF920F931F93CF93DF93809115018823D1
:1004A00009F447C08AE00E94D105809115010E949D
:1004B000D105CAE1D1E08F81813091F58881803802
:1004C000E1F0803411F481E019C0803211F482E04F
:1004D00015C0803111F483E011C0883011F484E03C
:1004E0000DC0843011F485E009C0823011F486E03B
:1004F00005C0813011F487E001C080E01B810C81D0
:10050000FD80EE800E94D105812F0E94D105802FB1
:100510000E94D1058F2D0E94D1058E2D0E94D105FC
:1005200081E0C235D80711F02896C5CF8FEF0E9421
:10053000D10584E00E94D301DF91CF911F910F91EB
:10054000FF90EF9008954F925F927F928F929F92CB
:10055000AF92BF92CF92DF92EF92FF920F931F93D1
:10056000DF93CF930F92CDB7DEB780911601823023
:1005700009F059C08BE00E948A05809117010E9402
:100580008A050CE612E02CEBE22E21E0F22ED801D7
:100590008C91898389818F70898389818295807FFD
:1005A00089839981F70180818F70892B8983898163
:1005B0000E948A05D70111968C91898389818F7059
:1005C000898389818295807F89839981F8018181DE
:1005D0008F70892B898389810E948A050E5F1F4F46
:1005E00042E050E0E40EF51E53E00C31150779F6B9
:1005F0008FE00E948A05809117018F5F8093170119
:10060000883408F4BFC0109217011092160180912F
:100610006F008E7F80936F0081E160E00E94950003
:100620000E949900B9C0813009F0B6C0C09018018D
:10063000EC2CFF24470108948108910810911501C2
:10064000DD24D39420E030E09CE6492E92E0592E40
:1006500077247394D2010C913D0D1196DC90E2E069
:10066000F0E04E0E5F1E2D0D002309F452C0F3E0A2
:10067000FD1508F04EC0EAE1F1E08081081781F530
:100680008781813069F586E0A82EB12CAE0EBF1EA1
:10069000868190E08815990519F5BF016F5F7F4F3E
:1006A0008181AF014E5F5F4F9281381710F0931731
:1006B00040F4281710F0921720F4831788F02917B8
:1006C00078F0DB013C93DA012C938381381708F42E
:1006D00033838581821708F42583F501C08219C010
:1006E00041E0E235F40709F453C03896C6CFF897D5
:1006F0008781882329F0389651E0EA35F507C1F75C
:100700000083318322833383C4822583C682778228
:100710001F5F203B08F49ECF10931501C70187701F
:1007200090700797F1F4EAE1F1E08781813089F474
:100730008681282F30E08481D901A81BB109A3301C
:10074000B1053CF4C701821B930B039714F0178289
:100750001150B1E0E235FB0711F03896E6CF109367
:1007600015018C2D8F5F80931801803959F480E238
:100770000E94D30180916F008E7F80936F00109252
:1007800018010AC08091140182608093140104C092
:10079000183008F4ACCFBDCF0F90CF91DF911F91EF
:1007A0000F91FF90EF90DF90CF90BF90AF909F9010
:1007B0008F907F905F904F90089580E4EAE1F1E0A0
:1007C000DF011D928A95E9F7089580911601823024
:1007D00029F59091170180EBECE6F2E0DF01282F7C
:1007E0001D922A95E9F7ECEBF1E0DF011D928A9565
:1007F000E9F74A9BFECF4A99FECF892F880F05C0A3
:100800004C9BFECF4C99FECF81508823C9F78CE6D4
:1008100092E06CEB71E00E946F010895813041F429
:100820004C99FECF8CE692E060E074E00E941F01DC
:100830000895809116018130B9F4109218018091C9
:100840001501809319011092150180E4EAE1F1E0AD
:10085000DF011D928A95E9F74A9BFECF8CE692E074
:1008600060E074E00E941F0108951F93182F8430E8
:1008700031F1853028F4813029F1823069F507C0E3
:100880008038B1F0813831F1803231F515C081E125
:1008900061E00E9495000E94990088EE93E00E941A
:1008A000530010921701109316010E94E50314C023
:1008B00081E08093160103C00E9447020DC00E9490
:1008C00019040AC080911601882331F084E00E9447
:1008D000D30102C0109216011F9108951092B90021
:1008E00088E48093B8000895982F80915F0187FD78
:1008F000FCCF8091BC0084FDFCCF90935A01709393
:100900005C0160935B0140935E0110925D01109267
:10091000600185EA8093BC0080915F0180688093CC
:100920005F010895982F80915F0187FDFCCF909320
:100930005A0170935C0160935B0140935E0181E01A
:1009400080935D011092600185EA8093BC008091E4
:100950005F01806880935F01089580915F01881F27
:100960008827881F08951F920F920FB60F921124A7
:100970008F939F93EF93FF938091B900887F883284
:1009800009F43FC0893270F48031F1F0813120F4F4
:10099000883009F087C018C0883139F1803209F0F9
:1009A00081C026C0883421F1893438F4803309F4B9
:1009B0006FC0803409F076C039C0803509F443C077
:1009C000883509F06FC05DC080916001833008F008
:1009D0005FC080915A0190915D01880F890F8093CB
:1009E000BB008091BC008F7D49C01092600112C095
:1009F000809160018F5F809360018091BC00806B6B
:100A00003DC080915E01815080935E0180915E01C6
:100A10008823F1F1E0915B01F0915C018191809379
:100A2000BB00F0935C01E0935B0109C080915E0123
:100A3000815080935E0180915E018823C1F4809192
:100A4000BC0080681BC08091BB00E0915B01F0910D
:100A50005C018193F0935C01E0935B0180915E0106
:100A6000815080935E0180915E01882321F0809106
:100A7000BC00806C03C08091BC008F7B8093BC0065
:100A800011C0E0915B01F0915C018091BB0080831B
:100A90008091BC0080698093BC0080915F018F775A
:100AA00080935F01FF91EF919F918F910F900FBE07
:100AB0000F901F90189588E10FB6F894809360000E
:100AC000109260000FBE0E94B2010E947B050E943E
:100AD0006E040E94E40078940E94CC000E946A0692
:100AE0000E94DD0388EE93E00E9453000E94E10122
:100AF00080E090E008951092C50082E18093C400E8
:100B000088E98093C10086E08093C20082E08093F0
:100B1000C0000895982F8091C00085FFFCCF90936E
:100B2000C60008951F920F920FB60F9211248F9353
:100B30009F93EF93FF93809161019091C600E4E24F
:100B4000F3E0E80FF11D90838F5F8F718093610157
:100B500080911201ECE1F3E0E80FF11D91E0908348
:100B60008F5F877080931201FF91EF919F918F911A
:100B70000F900FBE0F901F901895DC01662381F037
:100B8000F89480916301E82FF0E0EC5BFC4F9D91BD
:100B900090838F5F8F7380936301615091F7789496
:100BA0000895F89490916301E4E4F3E0E90FF11DF6
:100BB00080839F5F9F7390936301789408950DC025
:100BC000F894E92FF0E0EC5BFC4F80819F5F9F730E
:100BD0009093640178940E948A05909164018091B9
:100BE0006301891769F708951F93CF93DF93EC0191
:100BF000162F04C089910E948A0511501123D1F744
:100C0000DF91CF911F9108959091640180916301CC
:100C1000891769F0F894E92FF0E0EC5BFC4F8081D4
:100C20009F5F9F739093640178940E948A05089552
:100C300080916801803531F4809169018734D9F55C
:100C400081E03AC0873439F480916901863599F59D
:100C50001092000133C0843431F4809169018634EC
:100C6000E1F483E029C0833431F480916901823555
:100C700011F582E021C0853431F480916901843519
:100C8000D1F484E019C0833531F4809169018D3449
:100C900091F486E011C0843431F480916901843587
:100CA00051F485E009C0823531F4809169018335C2
:100CB00011F487E001C089E08093000183E0E8E659
:100CC000F1E0DF011D928A95E9F710926701109219
:100CD00066010895109268011092690110926A01EC
:100CE00010926B0180E4ECE6F1E0DF01982F1D9299
:100CF0009A95E9F7E4E4F3E0DF011D928A95E9F7BC
:100D000080E2E4E2F3E0DF011D928A95E9F70895BD
:100D100088E691E00E943508E09165018F3F9105DA
:100D200051F048F089E080930001F0E0E459FE4F73
:100D30008FEF808304C0F0E0E459FE4F808383E0AE
:100D4000E8E6F1E0DF011D928A95E9F7109267016C
:100D50001092660108955F926F927F928F929F9298
:100D6000AF92BF92CF92DF92EF92FF920F931F93B9
:100D7000CF93DF93A9E0DA2EFCE6AF2EF1E0BF2E91
:100D8000E0E46E2E71E4572E63E4C62E5BE4952EEC
:100D90004DE0842E3EE4732E40C1F894E92FF0E03C
:100DA000EC5DFC4F20819F5F9F719093620178946E
:100DB0002D3009F0F8C080916501882319F40E9454
:100DC000180607C00E948806809165018F5F809396
:100DD000650184E690E00E945300809100018850F4
:100DE00090916301823048F5F894E92FF0E0EC5BD4
:100DF000FC4F7082892F8F5F8F737894F894E82F5F
:100E0000F0E0EC5BFC4FC0828F5F8F737894F894B6
:100E1000E82FF0E0EC5BFC4F90828F5F8F7378944B
:100E2000F894E82FF0E0EC5BFC4F80828F5F8F73CB
:100E300080936301789480E952C0F894E92FF0E040
:100E4000EC5BFC4F5082892F8F5F8F737894F894FE
:100E5000E82FF0E0EC5BFC4FC0828F5F8F737894DB
:100E6000F894E82FF0E0EC5BFC4F90828F5F8F737B
:100E70007894F894E82FF0E0EC5BFC4F80828F5F71
:100E80008F7380936301789480E90E94D3018091ED
:100E90000001813009F47FC08823A9F480916301A7
:100EA000A1E0B1E00AC01196F894E82FF0E0EC5B05
:100EB000FC4F90838F5F8F7378949C91992399F75F
:100EC0008093630168C0873019F40E94E30063C017
:100ED000833041F484E690E00E94530082E00E9457
:100EE000D30159C0823091F411E009C0E12FF0E044
:100EF000E459FE4F808161810E9495001E5F8091C0
:100F00006501181798F30E94990045C0843031F4A8
:100F100084E690E00E94530080E8E1CF853011F430
:100F200081E8DDCF8630B9F500E031C0802F90E058
:100F3000EC012196FE01E459FE4F108120E0E22EE3
:100F400024E0F22EE80EF91EF7011083CE010E9474
:100F50006B088117D9F0CE01612F0E947308CE0172
:100F60000E946B08F7016081861781F0CE010E9414
:100F70007308CE010E946B08F7016081861731F07B
:100F8000CE010E947308CE010E946B080F5F809112
:100F90006501081758F210926501F501862D11922E
:100FA0008A95E9F73AC02032C9F480916501882317
:100FB00019F40E9418060CC090E0CF973CF01092F4
:100FC0006601109267011092650125C00E94880693
:100FD000809165018F5F809365011FC0822F8154CE
:100FE0008A3118F08F5E8A30B0F480916701E82F63
:100FF000F0E0E859FE4F2083909166019F5F909347
:1010000066018F5F80936701943038F0D0920001C1
:101010001092670102C0D09200019091620180910C
:101020006101891709F0B9CEE894DF91CF911F9142
:101030000F91FF90EF90DF90CF90BF90AF909F9077
:101040008F907F906F905F900895803129F0803964
:1010500049F0813049F403C00E94040608950E94BB
:10106000AB0608950E94DF050895FC0188279927A3
:10107000E89421912032E9F3293010F02E30C8F3A2
:101080002B3241F02D3239F4689404C00E94530889
:10109000820F911D219120532A30C0F31EF49095A8
:1010A00081959F4F08957AE0979F902D879F802D7F
:1010B000910D11240895DC01CB01FC01F999FECFBB
:1010C00006C0F2BDE1BDF89A319600B40D924150D0
:1010D0005040B8F70895F999FECF92BD81BDF89AB6
:1010E000992780B50895262FF999FECF1FBA92BD92
:1010F00081BD20BD0FB6F894FA9AF99A0FBE0196F9
:061100000895F894FFCFF2
:101106000841565263616D2076312E342E310D0022
:00000001FF
