:020000020000FC
:100000003EC00895BA9AFDDF01D008950894221FDA
:1000100001C0220F59F0B99A18F40000BA9802C032
:10002000BA9A00C0EEDFB998ECDFF3CFB99ABA986C
:10003000E8DFB998B19BFECF3327B29931E0E1DF19
:1000400000000895B99ABA9ADCDFB998DADFBA9855
:10005000D8DF0895BA98B998C298C19808950FEF5B
:100060000A950000000000000000000000000000F1
:10007000000000000000A1F71A9589F70895B89ACA
:10008000C09A1FEFECDFE6DF20ECBCDF23E1BEDF30
:1000900025E0BCDFD7DF1FEFE2DF20ECB3DF2FE38B
:1000A000B5DF22E4B3DFCEDF1FEFD9DFC098BB9A04
:0600B000C39AC398FDCFC6
:00000001FF
